{
  "address": "0x7Ad735Ad9FC3073e82DDf0b3E377501AD87A6402",
  "abi": [
    {
      "inputs": [
        {
          "internalType": "address",
          "name": "tokenAddress",
          "type": "address"
        }
      ],
      "stateMutability": "nonpayable",
      "type": "constructor"
    },
    {
      "inputs": [
        {
          "internalType": "address",
          "name": "owner",
          "type": "address"
        }
      ],
      "name": "OwnableInvalidOwner",
      "type": "error"
    },
    {
      "inputs": [
        {
          "internalType": "address",
          "name": "account",
          "type": "address"
        }
      ],
      "name": "OwnableUnauthorizedAccount",
      "type": "error"
    },
    {
      "inputs": [],
      "name": "ReentrancyGuardReentrantCall",
      "type": "error"
    },
    {
      "anonymous": false,
      "inputs": [
        {
          "indexed": false,
          "internalType": "address",
          "name": "buyer",
          "type": "address"
        },
        {
          "indexed": false,
          "internalType": "uint256",
          "name": "amountOfETH",
          "type": "uint256"
        },
        {
          "indexed": false,
          "internalType": "uint256",
          "name": "amountOfTokens",
          "type": "uint256"
        }
      ],
      "name": "BuyTokens",
      "type": "event"
    },
    {
      "anonymous": false,
      "inputs": [
        {
          "indexed": true,
          "internalType": "address",
          "name": "previousOwner",
          "type": "address"
        },
        {
          "indexed": true,
          "internalType": "address",
          "name": "newOwner",
          "type": "address"
        }
      ],
      "name": "OwnershipTransferred",
      "type": "event"
    },
    {
      "anonymous": false,
      "inputs": [
        {
          "indexed": false,
          "internalType": "address",
          "name": "seller",
          "type": "address"
        },
        {
          "indexed": false,
          "internalType": "uint256",
          "name": "amountOfETH",
          "type": "uint256"
        },
        {
          "indexed": false,
          "internalType": "uint256",
          "name": "amountOfTokens",
          "type": "uint256"
        }
      ],
      "name": "SellTokens",
      "type": "event"
    },
    {
      "inputs": [],
      "name": "buyTokens",
      "outputs": [],
      "stateMutability": "payable",
      "type": "function"
    },
    {
      "inputs": [],
      "name": "owner",
      "outputs": [
        {
          "internalType": "address",
          "name": "",
          "type": "address"
        }
      ],
      "stateMutability": "view",
      "type": "function"
    },
    {
      "inputs": [],
      "name": "renounceOwnership",
      "outputs": [],
      "stateMutability": "nonpayable",
      "type": "function"
    },
    {
      "inputs": [
        {
          "internalType": "uint256",
          "name": "tokenInput",
          "type": "uint256"
        }
      ],
      "name": "sellTokens",
      "outputs": [],
      "stateMutability": "nonpayable",
      "type": "function"
    },
    {
      "inputs": [],
      "name": "selltokensPerEth",
      "outputs": [
        {
          "internalType": "uint256",
          "name": "",
          "type": "uint256"
        }
      ],
      "stateMutability": "view",
      "type": "function"
    },
    {
      "inputs": [],
      "name": "tokenG9",
      "outputs": [
        {
          "internalType": "contract TokenG9",
          "name": "",
          "type": "address"
        }
      ],
      "stateMutability": "view",
      "type": "function"
    },
    {
      "inputs": [],
      "name": "tokensPerEth",
      "outputs": [
        {
          "internalType": "uint256",
          "name": "",
          "type": "uint256"
        }
      ],
      "stateMutability": "view",
      "type": "function"
    },
    {
      "inputs": [
        {
          "internalType": "address",
          "name": "newOwner",
          "type": "address"
        }
      ],
      "name": "transferOwnership",
      "outputs": [],
      "stateMutability": "nonpayable",
      "type": "function"
    },
    {
      "inputs": [],
      "name": "withdraw",
      "outputs": [],
      "stateMutability": "nonpayable",
      "type": "function"
    }
  ],
  "transactionHash": "0x3bc64a34a68bfbab05f99e380c40ee58adad2dbedbf43e57fc7955da38bfbaef",
  "args": [
    "0xaE31BAfecB3C6BE5Cf0706fB1fE8C75e9FC70550"
  ],
  "numDeployments": 1,
  "solcInputHash": "3dd624bad14a6f5080e4365a0365b5a4",
  "bytecode": "0x608060405234801561001057600080fd5b506040516108c13803806108c183398101604081905261002f916100d8565b338061005557604051631e4fbdf760e01b81526000600482015260240160405180910390fd5b61005e81610088565b5060018055600280546001600160a01b0319166001600160a01b0392909216919091179055610108565b600080546001600160a01b038381166001600160a01b0319831681178455604051919092169283917f8be0079c531659141344cd1fd0a4f28419497f9722a3daafe3b4186f6b6457e09190a35050565b6000602082840312156100ea57600080fd5b81516001600160a01b038116811461010157600080fd5b9392505050565b6107aa806101176000396000f3fe6080604052600436106100865760003560e01c806387a738f51161005957806387a738f5146101145780638da5cb5b14610137578063cbdd69b514610155578063d0febe4c1461016a578063f2fde38b1461017257600080fd5b80630345e3a81461008b5780633ccfd60b146100c85780636c11bcd3146100df578063715018a6146100ff575b600080fd5b34801561009757600080fd5b506002546100ab906001600160a01b031681565b6040516001600160a01b0390911681526020015b60405180910390f35b3480156100d457600080fd5b506100dd610192565b005b3480156100eb57600080fd5b506100dd6100fa3660046106bc565b61028e565b34801561010b57600080fd5b506100dd61048e565b34801561012057600080fd5b50610129607d81565b6040519081526020016100bf565b34801561014357600080fd5b506000546001600160a01b03166100ab565b34801561016157600080fd5b50610129606481565b6100dd6104a0565b34801561017e57600080fd5b506100dd61018d3660046106d5565b6105d7565b61019a610615565b6101a2610642565b47806101ea5760405162461bcd60e51b81526020600482015260126024820152714e6f2065746820746f20776974686472617760701b60448201526064015b60405180910390fd5b600080546040516001600160a01b039091169083908381818185875af1925050503d8060008114610237576040519150601f19603f3d011682016040523d82523d6000602084013e61023c565b606091505b50509050806102815760405162461bcd60e51b815260206004820152601160248201527015da5d1a191c985dd85b0819985a5b1959607a1b60448201526064016101e1565b505061028c60018055565b565b600081116102de5760405162461bcd60e51b815260206004820152601c60248201527f746f6b656e20696e707574206d75737420626520706f7369746976650000000060448201526064016101e1565b60006102eb607d83610705565b90504781111561033d5760405162461bcd60e51b815260206004820152601f60248201527f2076656e646f7220646f65736e2774206861766520656e6f756768204554480060448201526064016101e1565b6002546040516323b872dd60e01b8152336004820152306024820152604481018490526001600160a01b03909116906323b872dd906064016020604051808303816000875af1158015610394573d6000803e3d6000fd5b505050506040513d601f19601f820116820180604052508101906103b89190610727565b50604051600090339083908381818185875af1925050503d80600081146103fb576040519150601f19603f3d011682016040523d82523d6000602084013e610400565b606091505b50509050806104485760405162461bcd60e51b815260206004820152601460248201527308115512081d1c985b9cd9995c8819985a5b195960621b60448201526064016101e1565b60408051338152602081018490529081018490527fa24838acd4af5195a2396965dae5abf54e84e8c19f5698bb966ae64e29994ee59060600160405180910390a1505050565b610496610615565b61028c600061066c565b6104a8610642565b34806105075760405162461bcd60e51b815260206004820152602860248201527f65746820696e7075742063616e6e6f74206265203c3d3020696620627579696e6044820152676720746f6b656e7360c01b60648201526084016101e1565b6000610514826064610749565b60025460405163a9059cbb60e01b8152336004820152602481018390529192506001600160a01b03169063a9059cbb906044016020604051808303816000875af1158015610566573d6000803e3d6000fd5b505050506040513d601f19601f8201168201806040525081019061058a9190610727565b5060408051338152602081018490529081018290527f0a37b72bb67eee30e09084cf386f8a17817c57f620c3ab95fb25d6a20356ec779060600160405180910390a1505061028c60018055565b6105df610615565b6001600160a01b03811661060957604051631e4fbdf760e01b8152600060048201526024016101e1565b6106128161066c565b50565b6000546001600160a01b0316331461028c5760405163118cdaa760e01b81523360048201526024016101e1565b60026001540361066557604051633ee5aeb560e01b815260040160405180910390fd5b6002600155565b600080546001600160a01b038381166001600160a01b0319831681178455604051919092169283917f8be0079c531659141344cd1fd0a4f28419497f9722a3daafe3b4186f6b6457e09190a35050565b6000602082840312156106ce57600080fd5b5035919050565b6000602082840312156106e757600080fd5b81356001600160a01b03811681146106fe57600080fd5b9392505050565b60008261072257634e487b7160e01b600052601260045260246000fd5b500490565b60006020828403121561073957600080fd5b815180151581146106fe57600080fd5b808202811582820484141761076e57634e487b7160e01b600052601160045260246000fd5b9291505056fea2646970667358221220dafc258aade2c04dac294ed9f3e930941870ea495cdd6c9a38de805e995aef3d64736f6c63430008140033",
  "devdoc": {
    "errors": {
      "OwnableInvalidOwner(address)": [
        {
          "details": "The owner is not a valid owner account. (eg. `address(0)`)"
        }
      ],
      "OwnableUnauthorizedAccount(address)": [
        {
          "details": "The caller account is not authorized to perform an operation."
        }
      ],
      "ReentrancyGuardReentrantCall()": [
        {
          "details": "Unauthorized reentrant call."
        }
      ]
    },
    "kind": "dev",
    "methods": {
      "owner()": {
        "details": "Returns the address of the current owner."
      },
      "renounceOwnership()": {
        "details": "Leaves the contract without owner. It will not be possible to call `onlyOwner` functions. Can only be called by the current owner. NOTE: Renouncing ownership will leave the contract without an owner, thereby disabling any functionality that is only available to the owner."
      },
      "transferOwnership(address)": {
        "details": "Transfers ownership of the contract to a new account (`newOwner`). Can only be called by the current owner."
      }
    },
    "version": 1
  },
  "userdoc": {
    "kind": "user",
    "methods": {},
    "version": 1
  },
  "storageLayout": {
    "storage": [
      {
        "astId": 8,
        "contract": "contracts/Vendor.sol:Vendor",
        "label": "_owner",
        "offset": 0,
        "slot": "0",
        "type": "t_address"
      },
      {
        "astId": 944,
        "contract": "contracts/Vendor.sol:Vendor",
        "label": "_status",
        "offset": 0,
        "slot": "1",
        "type": "t_uint256"
      },
      {
        "astId": 1060,
        "contract": "contracts/Vendor.sol:Vendor",
        "label": "tokenG9",
        "offset": 0,
        "slot": "2",
        "type": "t_contract(TokenG9)1032"
      }
    ],
    "types": {
      "t_address": {
        "encoding": "inplace",
        "label": "address",
        "numberOfBytes": "20"
      },
      "t_contract(TokenG9)1032": {
        "encoding": "inplace",
        "label": "contract TokenG9",
        "numberOfBytes": "20"
      },
      "t_uint256": {
        "encoding": "inplace",
        "label": "uint256",
        "numberOfBytes": "32"
      }
    }
  }
}